{
    "_format": "hh-sol-artifact-1",
    "contractName": "BuyMeToken",
    "sourceName": "contracts/BuyMeToken.sol",
    "abi": [
        {
            "inputs": [],
            "stateMutability": "nonpayable",
            "type": "constructor"
        },
        {
            "anonymous": false,
            "inputs": [
                {
                    "indexed": true,
                    "internalType": "address",
                    "name": "from",
                    "type": "address"
                },
                {
                    "indexed": false,
                    "internalType": "uint256",
                    "name": "timestamp",
                    "type": "uint256"
                },
                {
                    "indexed": false,
                    "internalType": "string",
                    "name": "name",
                    "type": "string"
                },
                {
                    "indexed": false,
                    "internalType": "string",
                    "name": "message",
                    "type": "string"
                }
            ],
            "name": "NewMemo",
            "type": "event"
        },
        {
            "inputs": [
                {
                    "internalType": "string",
                    "name": "_name",
                    "type": "string"
                },
                {
                    "internalType": "string",
                    "name": "_message",
                    "type": "string"
                }
            ],
            "name": "buyToken",
            "outputs": [],
            "stateMutability": "payable",
            "type": "function"
        },
        {
            "inputs": [],
            "name": "getMemos",
            "outputs": [
                {
                    "components": [
                        {
                            "internalType": "address",
                            "name": "from",
                            "type": "address"
                        },
                        {
                            "internalType": "uint256",
                            "name": "timestamp",
                            "type": "uint256"
                        },
                        {
                            "internalType": "string",
                            "name": "name",
                            "type": "string"
                        },
                        {
                            "internalType": "string",
                            "name": "message",
                            "type": "string"
                        }
                    ],
                    "internalType": "struct BuyMeToken.Memo[]",
                    "name": "",
                    "type": "tuple[]"
                }
            ],
            "stateMutability": "view",
            "type": "function"
        },
        {
            "inputs": [],
            "name": "withdrawTips",
            "outputs": [],
            "stateMutability": "nonpayable",
            "type": "function"
        }
    ],
    "bytecode": "0x60808060405234602757600080546001600160a01b0319163317905561089f908161002d8239f35b600080fdfe6080604052600436101561001257600080fd5b60003560e01c80633aaa74b214610631578063865c5172146104c85763ad8b9edc1461003d57600080fd5b60403660031901126104c35760043567ffffffffffffffff81116104c357610069903690600401610734565b60243567ffffffffffffffff81116104c357610089903690600401610734565b341561047f576040519161009c836106f6565b33835260208301924284526040810182815260608201948486526001546801000000000000000081101561037657600181018060015581101561046957600160005260021b92837fb10e2d527612073b26eecdfd717e6a320cf44b4afac2b0732d9fcbe2b7fa0cf6019060018060a01b039051166bffffffffffffffffffffffff60a01b825416179055517fb10e2d527612073b26eecdfd717e6a320cf44b4afac2b0732d9fcbe2b7fa0cf78301557fb10e2d527612073b26eecdfd717e6a320cf44b4afac2b0732d9fcbe2b7fa0cf88201905180519067ffffffffffffffff82116103765761018c835461078b565b601f8111610421575b50602090601f8311600114610397577fb10e2d527612073b26eecdfd717e6a320cf44b4afac2b0732d9fcbe2b7fa0cf9949392916000918361038c575b50508160011b916000199060031b1c19161790555b01925192835167ffffffffffffffff811161037657610206825461078b565b601f811161032e575b506020601f82116001146102a15790806102829493927fc56140e05f516509ae28110e0f72e17558a7561630dad2647c3ae87d986e365c9697600092610296575b50508160011b916000199060031b1c19161790555b6102916040519283924284526060602085015260608401906106b5565b828103604084015233956106b5565b0390a2005b015190503880610250565b601f1982169583600052816000209660005b81811061031657509660019284926102829796957fc56140e05f516509ae28110e0f72e17558a7561630dad2647c3ae87d986e365c999a106102fd575b505050811b019055610265565b015160001960f88460031b161c191690553880806102f0565b838301518955600190980197602093840193016102b3565b826000526020600020601f830160051c8101916020841061036c575b601f0160051c01905b818110610360575061020f565b60008155600101610353565b909150819061034a565b634e487b7160e01b600052604160045260246000fd5b0151905038806101d2565b90601f1983169184600052816000209260005b81811061040957509160019391857fb10e2d527612073b26eecdfd717e6a320cf44b4afac2b0732d9fcbe2b7fa0cf998979694106103f0575b505050811b0190556101e7565b015160001960f88460031b161c191690553880806103e3565b929360206001819287860151815501950193016103aa565b836000526020600020601f840160051c8101916020851061045f575b601f0160051c01905b8181106104535750610195565b60008155600101610446565b909150819061043d565b634e487b7160e01b600052603260045260246000fd5b606460405162461bcd60e51b815260206004820152602060248201527f43616e27742042757920746f6b656e20776974682030206574682076616c75656044820152fd5b600080fd5b346104c35760003660031901126104c35760015467ffffffffffffffff811161037657604051906104ff60208260051b0183610712565b80825260208201908160016000527fb10e2d527612073b26eecdfd717e6a320cf44b4afac2b0732d9fcbe2b7fa0cf66000915b8383106105db57848660405191829160208301906020845251809152604083019060408160051b85010192916000905b82821061057157505050500390f35b919360019193955060206105cb8192603f198a8203018652885190858060a01b038251168152838201518482015260606105ba60408401516080604085015260808401906106b5565b9201519060608184039101526106b5565b9601920192018594939192610562565b600460206001926040516105ee816106f6565b848060a01b038654168152848601548382015261060d600287016107c5565b604082015261061e600387016107c5565b6060820152815201920192019190610532565b346104c35760003660031901126104c3576000805481908190819047906001600160a01b03168282156106ac575bf11561066757005b60405162461bcd60e51b815260206004820152601760248201527f4661696c656420746f20776974686472617720746970730000000000000000006044820152606490fd5b506108fc61065f565b919082519283825260005b8481106106e1575050826000602080949584010152601f8019910116010190565b806020809284010151828286010152016106c0565b6080810190811067ffffffffffffffff82111761037657604052565b90601f8019910116810190811067ffffffffffffffff82111761037657604052565b81601f820112156104c35780359067ffffffffffffffff82116103765760405192610769601f8401601f191660200185610712565b828452602083830101116104c357816000926020809301838601378301015290565b90600182811c921680156107bb575b60208310146107a557565b634e487b7160e01b600052602260045260246000fd5b91607f169161079a565b90604051918260008254926107d98461078b565b80845293600181169081156108475750600114610800575b506107fe92500383610712565b565b90506000929192526020600020906000915b81831061082b5750509060206107fe92820101386107f1565b6020919350806001915483858901015201910190918492610812565b9050602092506107fe94915060ff191682840152151560051b820101386107f156fea2646970667358221220b8b6669d5ccc80d1a5cad67874afd1212bef2640c14897085f37e51c75e8149a64736f6c634300081c0033",
    "linkReferences": {},
    "deployedLinkReferences": {}
}